:1000000000000220DD590200055A0200075A0200D2
:10001000095A02000B5A02000D5A020000000000AB
:10002000000000000000000000000000E1120200DB
:10003000115A02000000000001130200155A0200CC
:1000400005850200175A02001D2E0200B925030083
:10005000175A0200175A0200651C0200175A0200C4
:10006000175A0200175A0200175A0200F11F020025
:10007000175A02000D870200175A0200175A020091
:10008000A52B0200450F0200175A0200175A020062
:10009000175A0200175A0200175A0200175A020094
:1000A000175A0200175A0200175A0200175A020084
:1000B000175A0200175A020000000000000000005A
:1000C000175A0200175A0200175A02008925030026
:1000D00001200200175A0200B52A0000B93C0200B4
:1000E000175A02000000000000000000000000009D
:1000F00000000000175A020000000000E92503007C
:1001000000000000000000000000000000000000EF
:1001100000000000000000000000000000000000DF
:1001200000000000000000000000000000000000CF
:1001300000000000000000000000000000000000BF
:1001400000000000000000000000000000000000AF
:10015000000000000000000000000000000000009F
:10016000000000000000000000000000000000008F
:10017000000000000000000000000000000000007F
:10018000000000000000000000000000000000006F
:10019000000000000000000000000000000000005F
:1001A000000000000000000000000000000000004F
:1001B000000000000000000000000000000000003F
:1001C000000000000000000000000000000000002F
:1001D000000000000000000000000000000000001F
:1001E000000000000000000000000000000000000F
:1001F00000000000000000000000000000000000FF
:100200003C420300000000001945000012430300B7
:1002100041420300000000001945000012430300A2
:100220004342030000000000E9380000C04803001A
:1002300048420300000000001D390000E8480300A8
:10024000CB4D03000000000085390000A0480300EA
:100250004C3E030001000000C9570000D04D0300D0
:10026000463E030001000000116A00000265030021
:10027000403E030001000000E1690000DC61030072
:10028000CA4D030002000000ED570000D94E0300E4
:10029000C74903000100000011460000FD490300AA
:1002A0001C4B030001000000394700002B4B0300EA
:1002B000234B030001000000654900009B4B030035
:1002C00017420300010000008D3D00007947030044
:1002D0001F4203000100000021390000A242030078
:1002E0002442030001000000254200009A4303005D
:1002F0002942030001000000113D00008442030078
:1003000030420300010000004D3C0000B2470300F2
:1003100035420300010000007D3B0000344803002B
:10032000CC4903000100000089460000D3490300C6
:100330004C3E030002000000BD5400008554000044
:1003400089350000553700003C4D0300403E030056
:10035000020000008D5F00006D5D00008935000027
:100360005537000000000000463E03000200000078
:100370009F5F00006D5D000089350000553700006B
:10038000000000001D320000A9360000000000003F
:10039000000000000000000000000000000000005D
:1003A000000000000000000000000000000000004D
:1003B000000000000000000000000000000000003D
:1003C000000000000000000000000000000000002D
:1020000010B5054C237833B9044B13B10448AFF332
:1020100000800123237010BD58080020000000003C
:10202000F892030008B5034B1BB103490348AFF313
:10203000008008BD000000005C080020F89203004A
:10204000A3F5803A704700BF174B002B08BF134B16
:102050009D46FFF7F5FF00218B460F461348144AB3
:10206000121A17F07BFA0E4B002B00D098470D4B3D
:10207000002B00D098470020002104000D000D48DF
:10208000002802D00C48AFF3008017F017FA2000A8
:10209000290000F013F817F0FDF900BF0000080058
:1020A000000000000000000000000220580800208E
:1020B000C4A40120000000000000000008B500F0EA
:1020C00099F901F011FB26F031FC00F09DF902F0C6
:1020D0007FFA01F063F901F0F5F801F099F8FEE7F5
:1020E000704738B58AB204460D460146002000F01C
:1020F000DDF82A0C21460120BDE8384000F0D6B8B2
:10210000F7B50126324601A91F208DF8026000F0C4
:102110004BFD0446002840F08380019DB5F5003F4B
:102120004FEA15477FD20146324600F089F8324621
:102130003146304600F084F8B74269D1C5F307252F
:10214000B54265D1394B019301990520FFF7C9FFCD
:10215000012201A91C2000F027FD044600285FD1C0
:1021600001990920FFF7BDFF012201A9112000F00C
:102170001BFD0446002853D1019A052100F0C2F846
:10218000044600284CD1012201A9132000F00CFDC7
:102190000446002844D1019A092100F0B3F804460E
:1021A00000283DD1012201A91E2000F0FDFC0446BB
:1021B000002835D1019B03F07F038DF801302BB14E
:1021C00001221B480DEB02010DF00CFF012201A9B9
:1021D000182000F0E9FC044610BB019B8BB11B0CDE
:1021E00001220DF1030113488DF803300DF0FAFEC2
:1021F000019B11488DF8033001220DF103010DF010
:10220000F1FE01220DF102010C480DF0EBFE07E09A
:10221000012201A91A2000F0C7FC0446002893D02F
:10222000204603B0F0BD6FF00B04F9E7EE3FEE3F40
:10223000043903000E39030020390300323903004A
:10224000F0B58BB005AC8DF80620164A8DF8071056
:10225000034602F11007264610685168254603C55B
:102260000832BA422C46F7D10F4C127861682068C8
:102270002A7002AA03C2218911802BB13033DBB24C
:102280008DF817308DF80B300DF107010122304623
:102290000DF0A8FE01220DF1060102A80DF0A2FE2C
:1022A0000BB0F0BD4C3903005D390300F0B589B0C7
:1022B000134B019203AA05460C4603F1100C174676
:1022C00018685968164603C6083363453246F7D185
:1022D00019889B783180B370019BA3F57A53303510
:1022E0003034B3F57A7F8DF80F508DF8134005D850
:1022F00004220DEB020138460DF074FE09B0F0BD6A
:1023000067390300F0B5254B8DB003AC06468C460B
:1023100003F1200E254618685968274603C708337D
:1023200073453C46F7D119889B78BB70A2F1013305
:10233000B3F1FD3F39802CD8D3B2C2F307219942C3
:1023400029D1C2F307438B4225D1B3EB126F4FEA79
:10235000126120D10CF1300330360DF107026046D6
:102360008DF80F608DF8133007F066FD044668B9EC
:102370009DF80720130443EA0223134343EA026350
:1023800002A90422284602930DF02CFE20460DB02F
:10239000F0BD0024FAE76FF00A04F7E77A3903008A
:1023A0004FF0A04307B50C22C3F83C270F4B40F277
:1023B0000112C3F840251FF09BF928B1852803D0EE
:1023C0000121084600F028FA20F090FC4FF08042EE
:1023D000D2F81834DB03FBD5054B1B6801934EF68E
:1023E000602003B05DF804EB184700BF00E0014037
:1023F000AC39030008B500F011FB03201EF0E7FF25
:10240000BDE80840FFF7CCBF08B5074B07481B687D
:10241000984700F01BFF10B1044800F07BF9BDE8BD
:102420000840002000F062BBD83903000D330000E3
:1024300048F21953984222DC48F20253984205DCD4
:10244000002814BF6FF0040000207047A0F505407D
:102450000338162810D8DFE800F00C220F0F0F0FFA
:102460000F0F0F0F0F0F0F2828282828250F2828B7
:1024700025006FF0110070476FF00400704748F2BC
:102480005053984211D0A0F50540D4BF4138603870
:10249000032834BF6FF00A006FF0040070476FF03C
:1024A000050070476FF0100070476FF00A0070472A
:1024B00008B5064B1A783AB901221A7023F052FC7B
:1024C000BDE80840FFF7B4BF002008BDA809002000
:1024D00008B5054B187828B123F060FCBDE808402A
:1024E000FFF7A6BF08BD00BFA809002007B504215B
:1024F0000DEB010023F0C6FD019803B05DF804FB6D
:1025000010B588B007ACCDE903340023CDE9011242
:1025100007920093054903460222054823F0DAFB9F
:1025200008B0BDE81040FFF783BF00BF548A030026
:102530007408002010B588B007ACCDE9033400233F
:10254000CDE901120792009305490346022205488E
:1025500023F0C0FB08B0BDE81040FFF769BF00BF23
:10256000788A03007408002010B5044623F056FC56
:102570002046BDE8104000F059BD000037B50546C3
:102580004C20019100F014FD044660B1019A074906
:1025900023F02CFC20B103B0BDE83040FFF748BF6A
:1025A0002C6003B030BD6FF01000FAE7C08A030062
:1025B00030B589B0CDE900239DF840500C9C0695BC
:1025C0000F9DCDE904450D9D0A46CDE902450D2339
:1025D000012123F039FC09B0BDE83040FFF728BFE6
:1025E00030B587B00D9D0A9C04950C9DCDE9024540
:1025F0000B9DCDE90045FFF7DBFF07B030BD30B5DF
:1026000089B0CDE900239DF840500C9C06950F9DA4
:10261000CDE904450D9D0A46CDE902450D23002173
:1026200023F012FC09B0BDE83040FFF701BF30B520
:1026300087B00D9D0A9C04950C9DCDE902450B9D2C
:10264000CDE90045FFF7DBFF07B030BD70B50546AB
:102650004FF4A4700C46164600F0AAFC78B121464F
:1026600000F59A7304F1100251F8044B43F8044B3F
:102670009142F9D180F844612860002070BD6FF06C
:102680001000FBE700F0D2BC30B589B007ADCDE952
:102690000335CDE90112002300930649079200F5A6
:1026A0009A7390F8442123F015FBFFF7C1FE09B09F
:1026B00030BD00BF9C8A0300024A136801331360D7
:1026C000704700BFAC090020014B187820F0D6BA43
:1026D000809B01201FB50C4A044607CA01AB83E862
:1026E00007000A490294184620F06EFA08B11EF05D
:1026F000B7FF074820F0A2FA08B11EF0B1FF20F0A2
:102700008FFA04B010BD00BFA0390300B926000045
:10271000809B012070B5114D06460FCD8AB004ACE8
:102720000FC495E803000E4B84E803001E600D49BA
:102730000D4801234FF4007202F0F5FD0B4B0C4ADB
:1027400000934FF40073CDE902230193094A062355
:10275000694604A81EF0CAFE0AB070BDB439030071
:10276000C40F0020C40D0020B40D0020B1090020CA
:10277000B10B0020E527000008B51EF00FFFBDE8F3
:1027800008401EF059BF70B506460D460024A5420C
:1027900001DC002070BD305D1EF026FF08B9013459
:1027A000F5E71B20F6E7000007B50DF107001EF066
:1027B00005FF18B9084B1A781AB1187003B05DF804
:1027C00004FB9DF80710054802F0D9FD044B0348AF
:1027D0001B689847F2E700BFB0090020B40D002045
:1027E000C40F002003785A1E012A03D83721002085
:1027F00000F012B80BB9FFF7D7BF704738B5054DD9
:10280000044645F001054FF47A40A847013CFAD14F
:1028100038BD00BFD0390300144B2DE9F047DFF875
:1028200050A0197005460C464FF0A0480DB9BDE800
:10283000F0872646002EF9D003279AF800004FF0C3
:10284000100920F01BFA6420C8F80C95FFF7D6FF9A
:10285000C8F808956420FFF7D1FF013FEDD14FF490
:102860007A70FFF7CBFF013EE4E700BFC80F0020FE
:10287000809B0120024B187880F00100704700BF58
:10288000541000207047000008B5064B0A4601218D
:1028900019700146044823F03DF8B0FA80F0400971
:1028A00008BD00BF54100020F039030008B5114BDB
:1028B000114918604FF480621048402302F033FD44
:1028C00022F0D4FA0E4B0F4800221A7021F096FC29
:1028D00008B11EF0C5FE0C4821F032FD08B11EF013
:1028E000BFFE21F0F7FC18B1BDE808401EF0B8BEED
:1028F00008BD00BF681400205510002058140020A7
:1029000054100020143A0300F039030070B5044657
:10291000032938D8DFE801F002341B2C1A4D204679
:1029200023F019F881B2194802F01CFD4021174824
:1029300002F001FD40220146284623F011F800284C
:10294000EDD0134B11481B68BDE870401847114B80
:10295000002201201A701EF003FD40210B4802F0F6
:10296000EAFCBDE8704001464022074822F0F8BF6B
:10297000084B0022BDE8704001201A701EF004BD13
:10298000044B00221A7070BDF03903005814002067
:102990006814002054100020023808B50D283CD8D7
:1029A000DFE800F0070C3B3B3B3B17272E3B3B3B54
:1029B0001132BDE8084000201EF0E6BCBDE808402A
:1029C00000201EF0CDBC21F09FFCBDE808401EF0A9
:1029D000EFBC20F0A1FE00BB1EF012FF28B11EF0DC
:1029E000FBFE1EF00DFF0028FBD1BDE8084021F0E2
:1029F00089BC21F09BFCBDE8084000201EF0C2BE4F
:102A0000BDE8084021F082BC22F02AFA052804D152
:102A1000BDE80840032002F029BD08BD1F4B1B681C
:102A20000D2B36D11E4B1B68022B34D81D4AD35CAC
:102A3000002B0CBFFF215A214FF01023D3F808328E
:102A4000DBB28B4229D0184B0122C3F80425D3F8FE
:102A50000024002AFBD04FF01020D0F8082222F0EA
:102A6000FF020A43C0F808220022C3F804250E4AD8
:102A7000D2F80034002BFBD0BFF34F8F0B490C4B27
:102A8000CA6802F4E0621343CB60BFF34F8F00BF0C
:102A9000FDE7FF21D0E75A21CEE770473001001053
:102AA00034010010203A030000E0014000ED00E096
:102AB0000400FA05044B9A68F1EE103A136C23F007
:102AC0009F031364704700BF30EF00E0064AD2E96D
:102AD00000316FF07F401B184FF0000040EB010108
:102AE000C2E90031704700BF7014002008B5084AE1
:102AF000084909481FF0C6F940B907481FF000FA15
:102B0000BDE80840044801211FF062BA08BD00BFBB
:102B1000792C0000243A0300080000200A4B0B4ADD
:102B20001B68D2E90001D3F8043510B5084CC01871
:102B300041F10001A0FB042304FB0133D00B40EA68
:102B40004340D90B10BD00BF0800002070140020C6
:102B500040420F002DE97848104B1A680E46D2F813
:102B60000415D2F804359942FBD00D4A0D49D2E93B
:102B70000045E418A4FB01BC45F1000501FB05CCB0
:102B80004FEADB3242EA4C424FEADC33C0E9002331
:102B90002EF016FF3060BDE8788800BF08000020E6
:102BA0007014002040420F002DE9F8430646894684
:102BB00017460AB37F2822D81318802B1FD800F09D
:102BC000C9FA804600F0C0F8054648B100F098F810
:102BD000044628B1404600F0C2FA2046BDE8F8831A
:102BE0003A464946B0B22FF0CBF81DB100F074F868
:102BF0000446EFE72C46EDE76FF00A04EDE76FF0CF
:102C00000804EAE7074930B50023142404FB03F560
:102C1000DAB26D5C854203D00133042BF6D11A463B
:102C2000104630BD7814002010B5094A0023114623
:102C30005478844201D1147C34B90133042B02F15D
:102C40001402F5D1002010BD142000FB0310FAE798
:102C500078140020074A00231046117C31B101335B
:102C6000042B02F11402F8D100207047142202FB59
:102C70000300704778140020052813B504D102B072
:102C8000BDE81040FFF722BF0190FFF7BBFF03280C
:102C90001CD80F4C142303FB0044D4E9013098479F
:102CA000637C01990B4863B10368D3F80425E3689A
:102CB0001A4422F07F42012302B0BDE810401FF009
:102CC00045B902B0BDE810401FF026B902B010BDF2
:102CD000781400201000002038B5084D00F03AFAB2
:102CE0002B78044623B902202EF0CEFE01232B7050
:102CF000204600F034FA002038BD00BF1800002044
:102D000038B50F4D00F026FA2B7804469BB14FF4EE
:102D1000A0610C4800F042F84FF4C87000F066FA69
:102D20004FF41061074800F039F84FF4FA7000F0E2
:102D30005DFA00232B70204600F011FA002038BD08
:102D40001800002028000020014B1878704700BFB1
:102D50001800002070B5084C064600252368B342D1
:102D600003D163680BB1A06898470135062D04F1C3
:102D70001004F3D170BD00BFC81400201F2886BF07
:102D800000F01F00044B4FF0A04300F5E07053F833
:102D9000200000F00100704700030050D0E900322D
:102DA00003F01F03F0B543EA421369B91F2B86BF36
:102DB00003F01F031A4A4FF0A04203F5E07302210B
:102DC00042F823100020F0BD480754BFC1F3C004EF
:102DD0000324C1F3002511F400660CBF002703276C
:102DE0006A001F2B88BF03F01F0342EA050242EA74
:102DF00084028CBF0A484FF0A04003F5E07442EA19
:102E0000072240F824201EB101229A40C0F808256C
:102E10004A0542BF012202FA03F3C0F80C35D1E79C
:102E200000030050D0E9000300F01F0040EA431304
:102E300089B11F2B8ABF094A4FF0A04203F01F033C
:102E4000D2F81005D84010F001001DBF012300206A
:102E50000B70087070476FF00A0070470003005055
:102E600037B5D0E9005305F01F050C4645EA431578
:102E70001EF0C8FD78B114F4805313D12C4A190107
:102E800089588D4217D12846FFF778FF012818D1BD
:102E90006FF00A000DE01EF06FFD0028EBD06FF020
:102EA000050006E028461EF07DFE28461EF09CFE2A
:102EB000002003B030BD0133062BE0D16FF01800C5
:102EC000F7E714F4F83FE3D004F4C033B3F5803FE0
:102ED0002CD0B3F5C03F04D0B3F5004FD8D1154B7B
:102EE00000E0154B1A889B78ADF804208DF8063069
:102EF000019BADF8003022074FEA13438DF80230F2
:102F000044BF01238DF80130630748BF03230B4AF8
:102F100048BF8DF80130694628461EF07DFD002827
:102F2000CCD1012128461EF0F3FDC1E7044BD9E7BF
:102F3000C81400202D3A03002A3A0300552D000042
:102F4000303A0300F8B5D0E9004304F01F0444EA26
:102F500043142046FFF712FF012823D0134D002011
:102F60002B4606017759BC4207D1AB199A60012262
:102F7000C3E900411A73002016E001300628F0D1A1
:102F80000A4D00202E7B16B903EB0013EEE701304B
:102F9000062805F11005F5D120461EF003FE6FF05E
:102FA000180001E06FF00A00F8BD00BFC81400204F
:102FB00010B5044608B9002010BD083000F0D1F863
:102FC0000028F8D000230370044A054B4480436076
:102FD00013681C1B14600830EEE700BF5800002087
:102FE000ADDEADDE414338B50C4602D100231846B4
:102FF00038BD01F1080000F0B4F805460028F5D00E
:1030000000F1080322460021184616F0A7FA002214
:103010002A70044A6A60044A6C801168091B0346DE
:103020001160E4E7ADDEADDE5800002010B488B1D9
:103030000828A0F1080308D010F8080C06495C889D
:1030400051F82020224441F820205DF8044B184616
:1030500000F089B80346F8E75800002070B50C4628
:1030600058B130F8066C10F8085CA0F10803A21BF8
:103070003CB9FFF7DBFF002070BD0346064605465E
:10308000F5E7002A04DB0C4951F825108A42F2D8F2
:1030900004F10801184600F068F80028EBD0074B4F
:1030A0004360054B4480341B53F82560057034445D
:1030B00043F825400830DFE758000020ADDEADDEE4
:1030C00070B50D46044608B9002070BD0A4E56F88A
:1030D00021308342F8D3083000F043F80028F3D0C1
:1030E000064B436056F8253044801C1B057046F89B
:1030F00025400830E9E700BF58000020ADDEADDE16
:103100004143F8B516460C4602D100231846F8BDD7
:103110000E4F57F822308B42F7D301F1080000F030
:1031200020F805460028F0D000F1080322460021CF
:10313000184616F013FA064A6A6057F826106C8093
:10314000091B2E70034647F82610DFE758000020C1
:10315000ADDEADDE08B51DF0E1FE002008BD1DF0BE
:10316000E7BE1DF0C7BF1EF039B870B50C46064665
:1031700028B9C1B1BDE8704008461DF0BBBF91B190
:1031800008461DF0B7FF054658B156F8042C083A1A
:10319000A24228BF2246314616F0D2F930461EF030
:1031A0001DF8284670BD2546FBE7000008B51DF058
:1031B00013F9044B002158434FF47A73B0FBF3F03A
:1031C00008BD00BF40420F0013B5074C23782BB950
:1031D000019020F0E3FE01230198237002B0BDE8C6
:1031E000104020F0FDBE00BF2815002013B5074C8D
:1031F00023782BB9019020F0D1FE01230198237090
:1032000002B0BDE8104020F0DFBE00BF281500204E
:1032100008B51DF0A1F8002008BD000008B503495D
:1032200003484FF41C7216F08BF908BD383A0300BE
:10323000E005002000487047E00500200048704786
:10324000E00500200048704718060020014B93F865
:1032500068027047E0050020014B83F86802704760
:10326000E005002073B5144C23682BB913480522E0
:1032700008211BF0E3FF2060114E20684FF0FF3261
:1032800069461CF047F80028F7D1009B022B08D0B4
:10329000042BF2D14FF4FA70FFF796FF00F0A0FD77
:1032A000EBE7019800F0F4F9054600F005FA314625
:1032B000436928469847E0E72C1500203015002088
:1032C000849B012013B54FF40060FFF771FE0C4C96
:1032D0004FF400630322CDE90032A0600346094A9F
:1032E000094800211CF04CF9206030B93821012038
:1032F00002B0BDE81040FFF78FBA02B010BD00BFAA
:10330000849D0120A83C030065320000074B1B6828
:1033100007B53BB10223CDE90030054B694618687B
:103320001BF0D0FF03B05DF804FB00BF849D0120BB
:103330002C15002007B500230193064B064C5D6851
:10334000A847052201A920681CF0FEF800F0BCF88F
:10335000F6E700BFAC39030058150020074B1B6887
:1033600010B54BB1FFF7F6FE044600F059F82046C1
:10337000BDE81040FFF7F3BE10BD00BF5C15002094
:10338000044B1B6823B1044B002118681CF0D3B810
:10339000704700BF5C1500205815002007B54FF49A
:1033A0000070FFF705FE4FF400720221CDE9002105
:1033B0000346114A114800211CF0E2F8104B186036
:1033C00018B938210120FFF727FA1CF094F80D4BAB
:1033D000186018B938210120FFF71EFA00F014F820
:1033E00030B10921012003B05DF804EBFFF714BAF6
:1033F00003B05DF804FB00BFB03C030035330000B0
:103400005C1500205815002008B51BF0ABFF034BDE
:103410001860B0FA80F0400908BD00BF6895002030
:1034200038B5094D4FF0FF3128681BF0B9FF04464D
:1034300038B9064B9880588028681BF0D5FF204685
:1034400038BD0120FCE700BF689500206015002012
:10345000F8B5164E04460D46306840F621311BF093
:103460009FFF08BB124B5A889988571CC91BC1F390
:103470000E018D4215DB0921FFF7CEF909240BE07F
:10348000991810F8014B8C710132C2F30E02291AFF
:103490000029F5DC5A80002430681BF0A5FF204687
:1034A000F8BD20462544F2E70124F8E7689500209E
:1034B0006015002007B5FFF7CBFF0190FFF760FF15
:1034C000019803B05DF804FB2DE9F0412A4E4FF05E
:1034D000FF3130681BF064FF00284AD1274CA788D1
:1034E0006588ED1BC5F30E0535B9002430681BF067
:1034F0007BFF2046BDE8F08101F0BEFF032824D009
:10350000402D1F49A8463B4628BF4FF040080022E7
:10351000E0180132807901F8010B01339045C3F3C3
:103520000E03F5DCA380FFF791FEA8B1402D2946DC
:10353000134828BF4021FFF726F90028D5D01B21CA
:103540000020FFF769F91B24D0E70E4B5B69984711
:103550000028D5D10124C9E70A4B09489B68414698
:1035600098470028C1D10B21FFF756F9A7800B24FB
:10357000BCE70124BDE700BF68950020601500206E
:103580006C950020D83903002DE9F7438046FFF7FA
:10359000E1FD3A4C3A4E07460025B8F80A301BB90F
:1035A0003846FFF7DCFD0AE00DF10701404601F067
:1035B00027FF814638B93846FFF7D1FD4D462846EA
:1035C00003B0BDE8F0839DF80730082B01D07F2BB6
:1035D00010D12C480321FFF76DFF23880BB1013B6D
:1035E00023802388B3F5007F21BF0023238002239B
:1035F0003370D2E701210DF10700FFF75BFF9DF863
:1036000007300A2B01D00D2B0CD12288002AE8D0DC
:103610003378002BE5D11C4923800A2002258854E9
:103620003570DEE7208896F800C01749421CBCF1CF
:10363000020F0B5492B20BD17B2B08BF134922808F
:1036400009BF0123002333700B7018BF3370C8E724
:103650002280BCF1000FC4D07B2B04D10B4A13781D
:1036600001331370BDE77D2BBBD108480378013BC4
:10367000DBB20370002BB4D1CEE700BFAE950020C3
:1036800064000020B63C0300849B0120AC95002020
:1036900010B50446408930B100F00EF803692046A9
:1036A000BDE81040184710BD014B024A1A60704730
:1036B00050080020C03C0300014B1868704700BF51
:1036C00068000020034B002808BF1846024B186012
:1036D000704700BF500800206800002008B5FFF7C1
:1036E000A9FDD0F8600208BD002025F007B9000050
:1036F00038B505464FF49670FFF75AFC044608B3F8
:10370000114916F04AFD284616F04FFDB0F5907F9E
:103710000BD82946E01D16F040FD284616F045FD61
:1037200007300A49204416F038FD204616F03DFDCA
:10373000074B01465B68204698472046BDE8384065
:10374000FFF774BC38BD00BFDC3C03002655030006
:103750006C0000202DE9F04F022889B0804600AFB0
:103760000D464AD1084616F020FD534E534A54499F
:10377000326082466B1E914613F8014F002C40D1F7
:103780002B783C737B2B44D1284601F0C5FD834642
:10379000002848D04B4901F0C3FD0369002B44D0F9
:1037A00049497B60584601F0BBFD044630B17B6857
:1037B000464907F10C02184616F058FC444AC6F870
:1037C00000903368934232D36C468EB0414A07F181
:1037D0000C033221684616F0F5FB6846FFF788FFB8
:1037E000A546BBF1000F02D0584601F085FB5FFAF9
:1037F0008AF20021284615F0B1FE2437BD46BDE807
:10380000F08F0A5D02F00302022A08BF203C1C7000
:10381000B2E7314907F1080307F10C02284616F018
:1038200025FCA346CAE70446C8E71C46C6E7196854
:1038300069B307F10C007B6016F0A5FC7B68244A95
:10384000814620BB1B7943B1012B16D1FFF734FF12
:103850000379012B18BF4FF00108FFF72DFF836993
:1038600023B1596832681B7A4B4509DCB8F1010F66
:1038700010D11A48FFF73CFFB3E74FF00108ECE71F
:1038800001EB0910824205D009F10109ECE7103380
:10389000336096E73368B9689B68224628469847A4
:1038A000044638B116F081FC0D4B01465B6820469A
:1038B000984796E70B48DDE7949D01200002000041
:1038C000A5820300E73C0300F03C0300FB3C03003F
:1038D00030030000193D0300FF3C0300063D0300D8
:1038E0006C000020303D030007B5FFF737FD074BA4
:1038F00007485B6802219847064B019301A825F011
:1039000023F8054803B05DF804FB00BF6C000020FD
:1039100026550300C03C03005642030001F06CB87A
:103920007FB5002306460C460093FFF78BFC104939
:1039300005466B4601AA304616F098FBC0B2022835
:1039400007D095F8B8100B4801F066FD0A4804B09E
:1039500070BD012C06D804F0010385F8B83085F855
:103960006440F3E70548214601F056FD0448EEE7C0
:10397000FF3C03003A3D030056420300463D03006E
:103980004F4203002DE9F341414B186800909B889A
:10399000ADF804304FF4AF70FFF70AFB074600287C
:1039A0006AD045F65A223B493B4EDFF8388116F083
:1039B0003DFB3A49B81D16F0F0FB394A394907F189
:1039C000110016F033FB00F11105FFF775FE7C19AD
:1039D00002683549204616F029FB054433496A46FA
:1039E000781916F023FB2C18314B324A3249334DEB
:1039F000381916F01BFB04F121003149384416F048
:103A0000CCFB2934B54207EB040039D310F8013C54
:103A10002C492C2B08BF04F1FF34381916F0BDFBDC
:103A20002DF030FE251D7C1902462749204616F050
:103A3000FDFA054405F0CCFA7C19024623492046DC
:103A400016F0F4FA05442249781916F0A6FB2A1F4D
:103A50002049B81C16F0EAFA7B23A81CBB711E494A
:103A6000384416F09AFB1D4B291D5B683846984771
:103A70003846FFF7DBFA1A4F384602B0BDE8F0814E
:103A800055F8102B414616F0D1FA0444BAE700BFAE
:103A9000143E03006A3D030080020000713D0300F4
:103AA000D09203007D3D03008E3D0300A43D030042
:103AB000B63D0300BF3D0300CB3D030050020000B4
:103AC000DE3D0300ED3D0300F23D0300003E030038
:103AD000C74D03006C3D0300265503006C00002019
:103AE00056420300E73D0300F0B50E1E89B00546BF
:103AF00017460BDD1C49304416F04FFB284616F0E4
:103B000054FB01462846FFF7D5FC0026174B0793C8
:103B1000384616F04AFB07AA0446104616F045FB45
:103B2000C4F12404B4EB400317D411490391A3EB6F
:103B3000630007AACDE90170009104920D495B1062
:103B4000284616F073FA284616F02FFB0146284641
:103B5000FFF7B0FC304609B0F0BD07493A462846A9
:103B600016F064FAEFE700BF265503002D2D2D0057
:103B7000B93C03001A3E0300DF4B030070B586B06A
:103B80000646FFF757FB0446FFF75CFB2249054654
:103B900003AB30466A4616F069FA022806460BD097
:103BA000D4F8603233B119681C4801F035FC1C4868
:103BB00006B070BD1B49F7E71B4903A816F0E3FAEE
:103BC00028B91A4BC4F8603285F82402EFE7184987
:103BD00003A816F0D8FA30B9164BC4F860320123A6
:103BE00085F82432E3E7144903A816F0CCFA18B993
:103BF000124BC4F86032DAE70A4903A816F0C3FA98
:103C000028B90F4BC4F8603285F82462CFE70D481D
:103C100001F002FC0C48CBE72B3E0300323E0300D0
:103C200056420300BA3C0300403E03004C03000030
:103C3000463E0300680300004C3E030030030000D2
:103C4000C03C0300553E03004F42030010B502F094
:103C5000B4FEFFF77FFA044624F02CFE2046FFF75F
:103C60007EFA014810BD00BF5642030038B5054634
:103C70000A480CF06FFA044660B905F0A9FF044643
:103C800030B9284603F0C6FA044628B105F0D8FB3F
:103C90000CF082FA1BF0D8F9204638BD0000002055
:103CA00038B505460C4692B120440A490A3416F04C
:103CB000BDF9272C0BDD0849281916F06EFA2846A5
:103CC00016F073FA01462846FFF7F4FB002420465D
:103CD00038BD00BF743E030026550300F8B5064604
:103CE0000B46144642B11268FFF7FEFE67680346B2
:103CF0000025227A954201DB1846F8BD2A011946B3
:103D0000BA583046FFF7CCFF01350346F1E7000013
:103D10007FB5002301931BF0BDF918B1154807B01A
:103D20005DF804FB01A8FFF7A1FF0028F6D102A966
:103D3000019803F01BFB04990F4801F06DFBDDE9CE
:103D400002210E4801F068FB05990D4801F064FB63
:103D5000DDE90221059B0B4801F05EFB019803F0B1
:103D600067FA05F06DFB0CF017FA1BF06DF90648C9
:103D7000D5E700BF4F4203007A3E0300963E0300A2
:103D8000B43E0300CE3E03005642030013B5FFF7D6
:103D9000E1F90446002024F09FFD2046FFF7DFF9FB
:103DA000002301931BF076F910B10B4802B010BD4F
:103DB00001A8FFF75BFF0028F7D1019803F077FA1D
:103DC000019803F035FA05F03BFB0CF0E5F91BF028
:103DD0003BF90248EAE700BF4F42030056420300A6
:103DE00007B5044B019301A824F0AEFD03B05DF8C4
:103DF00004FB00BFC03C03002DE9F043A5B004461E
:103E0000FFF718FA2D210546204616F0AFF90028D5
:103E100000F0028120468249824FDFF86482DFF899
:103E2000649217F095F80026044603961CB9012009
:103E300025B0BDE8F08303AA3946204616F016F9EE
:103E4000012815D1039800F019FE013005D1039A1D
:103E5000754904A816F0EAF8CDE0039800F00EFECC
:103E600028706F49002017F073F801360446DDE72B
:103E700003AA4146204616F0F9F801280CD1039810
:103E800000F01EFE013002D1039A6849E1E7039871
:103E900000F016FEE870E4E703AA4946204616F053
:103EA000E5F801280CD1039800F068FE013002D13A
:103EB000039A5F49CDE7039800F060FE6871D0E790
:103EC0005C4903AA204616F0D1F801280AD10398CC
:103ED00000F06EFE013002D1039A5749B9E7039B07
:103EE000AB71BEE7554903AA204616F0BFF801287A
:103EF0000CD1039800F0CBFD013002D1039A504958
:103F0000A7E7039800F0C3FDE871AAE74D4903AAAB
:103F1000204616F0ABF801280CD1039800F052FEB1
:103F2000013002D1039A484993E7039800F04AFE12
:103F3000287296E7454903AA204616F097F801280B
:103F40000CD1039800F048FE013002D1039A404999
:103F50007FE7039800F040FE687282E73D4903AABC
:103F6000204616F083F801280CD1039800F014FEC7
:103F7000013002D1039A38496BE7039800F00CFE38
:103F800028736EE7354903AA204616F06FF801281A
:103F90000CD1039800F0A8FD013002D1039A3049FA
:103FA00057E7039800F0A0FD68735AE72D4903AA6C
:103FB000204616F05BF801280CD1039800F016FE9D
:103FC000013002D1039A284943E7039800F00EFE1E
:103FD000A87346E7254903AA204616F047F80128AA
:103FE00013D1039A3F2A0DD93F2300932049002380
:103FF00004A816F01BF81F4B01465B6804A89847FD
:10400000002015E785F869222BE716F0FF0F3FF433
:1040100028AF194922461CE71849224619E700BF74
:10402000EF3E0300F23E0300FA3E0300193F030097
:10403000363F0300543F03005F3F0300783F030017
:10404000813F03009A3F0300A53F0300BE3F0300EA
:10405000C93F0300E23F0300ED3F030006400300B9
:104060001040030027400300334003004D4003008D
:10407000594003006C00002091400300A840030059
:10408000123F03002D3F03002DE9704C4FF4967052
:10409000FEF78EFF8246FFF7CDF845F65A2283469B
:1040A0005049504615F0C2FF4F490AF1060016F07C
:1040B00074F89BF8000000F0E8FC4C4902460AF155
:1040C000170015F0B3FF00F117069BF8030000F08E
:1040D00001FD0AEB060402464549204615F0A6FFFD
:1040E00006449BF8050000F050FD0AEB060402466A
:1040F0004049204615F09AFF06449BF8060000F060
:104100005CFD0AEB060402463B49204615F08EFF93
:1041100034189BF8070000F0C8FC0AEB04050246BF
:104120003649284615F082FF25189BF8080000F054
:104130004EFD0AEB050402463149204615F076FF94
:1041400005449BF8090000F04CFD0AEB050402460B
:104150002C49204615F06AFF05449BF80C0000F03E
:1041600025FD0AEB050402462749204615F05EFFAF
:1041700005449BF80D0000F0DCFC0AEB0504024648
:104180002249204615F052FF05449BF80E0000F02E
:1041900037FD0AEB050402461D49204615F046FF8F
:1041A00005449BF869221B490AEB050015F03EFF08
:1041B0000544AA1F18490AF1020015F037FF7B23B6
:1041C0008AF8063015490AEB050015F0E6FF144B96
:1041D000A91C50465B6898475046BDE8704CFEF7F6
:1041E00025BF00BF6A3D03001F41030031410300AA
:1041F0003E4103004A410300584103006841030067
:10420000764103008641030096410300A641030066
:10421000B5410300C64103006C3D03002655030071
:104220006C00002010B58CB004AB0B4901AA044609
:1042300015F01CFFC3B2012B05D1084CFFF724FF7A
:1042400020460CB010BD022B04D12046FFF7D4FD50
:104250000028F2D1024CF1E7D64103005642030098
:104260004F4203002DE9F84F4FF49670FEF7A0FE81
:10427000454D464E2E600446002840D0FEF76AFFAA
:1042800007464348DFF83891DFF838B115F08DFF65
:10429000D9F8043001463E489847D9F804303D48E3
:1042A000022198474FF0000A2E602A683A4B9A4242
:1042B00028D3FFF701FA0279022A53D1FFF7FCF95C
:1042C0008269002A4ED0FFF7F7F9514682692046ED
:1042D000FFF704FD82462F4904EB0A0015F05DFF4D
:1042E000204615F062FFD9F8043001462046984771
:1042F0003846FEF734FF2046FEF798FE274C20464E
:10430000BDE8F88F92F80480B8F1000F13D12A6845
:10431000B24219D1224A51462046FFF7E5FB8246B8
:10432000B8F1020F0CD02A68514612682046FFF7F8
:10433000B7FC824604E0FFF7BFF90279012AE6D014
:104340002A6810322A60B0E7164B9A4201D1164A09
:10435000E1E75A4501D1154ADDE715498A42DFD127
:10436000144AD8E7FFF7A8F90279012AB3D1124D10
:10437000124E06E0AA6951462046FFF7AFFC1C35F5
:104380008246B542F6D3A6E7949D012000020000C4
:10439000D09203002655030030030000564203006C
:1043A0005D420300500200006E4203008743030099
:1043B000C002000023480300300300008403000013
:1043C0006C000020900200002DE9F74F06464FF4E4
:1043D0009670FEF7EDFD464DDFF82C81C5F80080A4
:1043E0000446002800F08180FEF7B4FEDFF81C913F
:1043F000C5F800800746C8462B684B4516D33D4993
:104400003D4D204615F0C9FE204615F0CEFE3B4B33
:1044100001465B68204698473846FEF7A0FE2046D6
:10442000FEF704FE284603B0BDE8F08F93F804A021
:10443000FFF742F90379534506D12B68186860B934
:104440002B6810332B60D7E7BAF1000FF5D0FFF7D8
:1044500033F90379012BF3D1EFE7314615F093FEE1
:104460000028EDD132462649DFF890A0204615F00D
:10447000DDFD204615F099FEDAF8043001462046AD
:1044800098472B68DE680D21304615F06FFED14647
:10449000F0B9DFF87CB0DFF87CA05A4633464E21F5
:1044A000204615F08FFD0190204615F07EFE514606
:1044B000204415F072FE204615F077FED9F804303E
:1044C000014620469847019A4D2A09DD4D36E4E71A
:1044D000304615F06AFEDAF8043001463046984757
:1044E0002B6843458BD2074D96E7064D9AE700BFF0
:1044F000949D0120E74103004F4203006C0000201F
:10450000DF410300564203000002000030030000B8
:104510002F3E03002655030030B587B00C461546E4
:104520000E496B4603AA15F0A1FD012804D002280C
:1045300008D0002007B030BD2A46214603A8FFF767
:1045400091FEF7E79DF800302A46214623B90DF188
:104550000100FFF739FFEDE76846FAE70E42030076
:10456000FFF7BCB87047000007B5FFF7F9FF0190EF
:1045700010B101A824F0E8F9134B144C5D68A8476A
:10458000C821684624F0ECF9013019D0FFF794F8FF
:10459000C3681BB1FFF790F8C36898470020FFF786
:1045A00091F81BF037F80098FFF78CF8009B9B6898
:1045B0000BB100209847236998471BF02BF8DEE7E2
:1045C000FFF7D0FFF7E700BFAC390300D83903008D
:1045D00007B541F2CC00FEF7EBFC41F2CC0205211D
:1045E000CDE900210346084A084800211AF0C8FF17
:1045F00030B93821012003B05DF804EBFEF70CB9A7
:1046000003B05DF804FB00BF2549030069450000C5
:104610007FB5002306460C460093FEF717FE1449AB
:1046200005466B4601AA304615F020FDC0B20228AF
:1046300006D01048294600F0EFFE0F4804B070BDC8
:10464000012C0ED83DB10CB9FEF796F804F001002C
:10465000FEF702FEF1E7002CF8D00848FEF75AF802
:10466000F4E70748214600F0D7FE0648E6E700BF1A
:10467000FF3C03002D490300564203000D330000A8
:10468000463D03004F420300F8B51AF003FD04460F
:1046900028B12048204C00F0BFFE2046F8BD4FF462
:1046A0000070FEF785FC054630B91C481A4C00F036
:1046B000B3FE1AF0C9FCF0E7FEF74CFD8022064677
:1046C00029462046FEF770FA04463046FEF747FDBD
:1046D0003CB11348104C00F09FFE2846FEF7A6FCA4
:1046E000E7E71048104E114F00F096FE55F82420D1
:1046F0002146304600F090FE7F2C02D0384600F074
:104700008BFE0134802CF1D109480A4C00F084FE64
:10471000E3E700BF394903004F4203005949030052
:1047200080490300A0490300B1490300DA3D0300BA
:10473000C3490300564203002DE9F0412DED028BE1
:104740000024B6B03D222146054606A8059414F083
:1047500005FF00220023CDE9022321467C2217A871
:104760000194169414F0FAFE1AF094FC30B16F4CD8
:10477000204636B0BDEC028BBDE8F0810BF0EAFCC0
:1047800004460028F3D16A49284616F0E1FB68493F
:10479000204616F0DDFB4022014605A815F01FFD5E
:1047A000644905AB13F8014BBCB916AF80223946FA
:1047B00005A80BF071FC061E18DA5F4805A900F089
:1047C0002BFE2746594C0BF0E7FC1AF03DFC002F5E
:1047D000CED03846FEF72AFCCAE70A5D02F0030293
:1047E000012A08BF203403F8014CDBE7504920467A
:1047F00016F0AEFB0546A0B95048514D05A900F092
:104800000BFE741E631C06D14E48314600F004FEB8
:1048100000274D4CD7E7395D284600F0FDFD013CEF
:10482000F0E7042E15DC022E224621460EDC16F09F
:1048300071FC019001AD27463246294605A80BF0D0
:10484000D1FB00285ED0296840483AE016F0EAFC27
:10485000EFE7082E07DC2246214616F087FD02AD61
:10486000CDE90201E7E73046FEF7A2FB074630B389
:104870009FED378ADFED378A4FEA66082B78302BB9
:1048800022D16B7803F0DF03582B1DD10022114693
:10489000284616F03FFC03B227F8143024490020C4
:1048A00016F056FB0134A045054625D00028E5D179
:1048B00029482346324605A900F0AEFD82E7274885
:1048C00005A900F0A9FD7DE70021284616F0E6FACB
:1048D000B5EEC00AF1EE10FABBBFF0EE687A40EE1A
:1048E000487ABEEEEA0AFDEEE77AACBF10EE103A67
:1048F00017EE903A1BB2CFE7194805A900F08CFDDE
:104900003D4699E70D48DFF8388005A900F084FDA1
:10491000AC19AC4204D10B48314600F07DFD78E77C
:1049200014F8011D404600F077FDF2E74F42030006
:10493000B0870300A58203002E4A03004F4A0300FC
:10494000DC540300564A030056420300FB4A0300AE
:104950000000004500008047904A0300634A0300BE
:10496000D54A03002DE9F047B0B000217C2211A800
:10497000109114F0F3FD1AF08DFB18B1194830B006
:10498000BDE8F0870BF0E6FB0028F7D1DFF85C808C
:10499000DFF85C90DFF85CA004466946A0B20BF03B
:1049A000B1FA28B10BF0F8FB1AF04EFB0E48E6E71F
:1049B0006946404610AF00F02FFD80223946684618
:1049C0000BF06AFB0546461E002E05DA29465046C6
:1049D00000F022FD0134E0E7B95D484600F01CFD1F
:1049E000013EF1E74F420300564203004F4A0300E5
:1049F000DC540300564A0300F0B5C1B068461AF013
:104A00000BFC0A2104A81AF0CBFB134A1349144FDC
:104A10000546144800F000FD04AC0026AE4211DB50
:104A2000039A1149114800F0F7FC019A10490F4808
:104A300000F0F2FC029A0F490C4800F0EDFC0E4821
:104A400041B0F0BD6369E2682146384600F0E4FCFD
:104A500001361834E2E700BFC14B0300CD4B030021
:104A6000E44B0300D94B0300F44B0300FF4B03005E
:104A70000A4C03001C4C03002A4C0300052803D0F9
:104A8000092818BF4FF0FF307047FFF7F7BF40F21B
:104A90005233984207D041F69A23984214BF4FF000
:104AA000FF30012070470020704730B1012841F6E7
:104AB0009A2018BF4FF0FF30704740F252307047D5
:104AC00004381C289ABF024B18564FF0FF3070472D
:104AD0002F4C030003289ABF024B18564FF0FF30AB
:104AE000704700BF4C4C0300B0F5807F17D009DC45
:104AF000402816D0802816D0202814BF4FF0FF3051
:104B000003207047B0F5806F0FD0B0F5006F0ED066
:104B1000B0F5007F14BF4FF0FF303F2070471F20DB
:104B20007047072070470F2070477F207047FF2095
:104B300070471F2815D009DC072815D00F2815D07D
:104B4000032814BF4FF0FF30202070477F280FD07C
:104B5000FF2810D03F2814BF4FF0FF304FF40070F3
:104B600070474FF480707047402070478020704736
:104B70004FF4806070474FF400607047A0F1090364
:104B8000042B28BF4FF0FF307047A0F10903042B1E
:104B900028BF4FF0FF307047032802DC40EAE07086
:104BA0007047082818BF4FF0FF307047FFF7F4BF79
:104BB000032888BF4FF0FF307047032888BF4FF0AD
:104BC000FF307047012888BF4FF0FF307047012841
:104BD00088BF4FF0FF307047012888BF4FF0FF308B
:104BE0007047012888BF4FF0FF307047012802DC72
:104BF00040EAE0707047032818BF4FF0FF3070475D
:104C0000FFF7F4BF7047FEF755BC002210B504460D
:104C10001046A15CA1F13003092B0BD8A0F13003A1
:104C2000032A01EB030002F1010218BF0001042A6C
:104C3000EFD110BDA1F14103052B02D8A0F137033C
:104C4000EEE7A1F16103052B02D8A0F15703E7E7D6
:104C50000020EEE72DE9F84F0A688B6880465D1C5E
:104C6000D018D35C222B8A46154440F0DD804C6876
:104C70002F460023B91AA14280F0D6803978222924
:104C80000ED1C3F10103381ADAF810201844904706
:104C90008346002800F0C880DFF8989104460FE0B2
:104CA0005C2905D10137B91A8C4240F2BD8001332D
:104CB0000137DFE72B785C2B12D004F8013B01357C
:104CC000BD42F7D3002323701023C8E9033BDAF871
:104CD0000030FF1A0137CAF808700120BDE8F88FCC
:104CE0007A1B002A0DDD6B78752B0AD86D2B12D834
:104CF000622B2BD026D82F2B29D05C2B27D0222B10
:104D000025D0DAF8143058469847DAF80000281A07
:104D1000CAF808008BE06E3B072BF2D801A151F8CE
:104D200023F000BF594D0000034D0000034D00006B
:104D3000034D00005D4D0000034D0000614D00007B
:104D4000654D0000662BDCD10C2300E0082304F83D
:104D5000013B02231D44B3E70A23F8E70D23F6E7DE
:104D60000923F4E7052ACCDDA81CFFF74EFFA0F5C8
:104D70005C43B3F5806F0646C3D3A0F55843B3F543
:104D8000806F2DD2AB1DFB1A052BBADDAB795C2BE6
:104D9000B7D1EB79752BB4D105F10800FFF735FFDA
:104DA000A0F55C43B3F5806FABD209EA8626C0F369
:104DB0000900304300F580360C234FF0F00C04203E
:104DC00000F1FF3E54FA8EFEA645F2B224D101282E
:104DD00014BF4CEA020202F07F0222700444B9E7D9
:104DE0007F280AD9B0F5006F0CD3B0F5803F0ED301
:104DF000B0F5881F85D20623DFE706234FF0000CAD
:104E00000120DDE706234FF0C00C0220D8E706237F
:104E10004FF0E00C0320D3E702F03F0262F07F0185
:104E20000EF80119B609CFE7002D7FF46EAF002010
:104E300054E700BF00FC0F0010B540B1016871B12C
:104E400042688368934206D2CC5C202C00D910BD06
:104E500001338360F5E7FAD1013A8260F7E708464B
:104E6000F5E70000F8B50D460446002834D00029C7
:104E700031D08468FAB9194E74B3236AC3B1AB4216
:104E800021D005F1FF3C013B1CF8011F8A5D02F0B7
:104E90000302012A13F8012FB05C00F003000F4653
:104EA00008BF01F12007012808BF203297420FD028
:104EB0002468E1E724687CB1216A21B1284615F015
:104EC00062F90028F6D1236A002B08BF002403E012
:104ED0000029D9D1F7E70C462046F8BDA58203008A
:104EE00010B5034628209847044618B1282200210F
:104EF00014F034FB204610BD70B5104D044604B9C3
:104F000070BDE3682668D90503D4A06868B9206934
:104F100088B9E3689B0503D4206A08B16B68984799
:104F200020466B6898473446E9E7FFF7E5FFE368FA
:104F3000DA05ECD5EDE76B689847EAE774000020E6
:104F40002DE9F047064692B00C4609B9002023E04F
:104F50000F68002FFAD08D68D1F8048005F104099C
:104F6000C1450BD8AE490422781915F026F928B9A5
:104F70000423F360C4F8089001200DE005F1050A50
:104F8000D0450CD3A7490522781915F016F930B988
:104F90000120F060C4F808A012B0BDE8F087C14558
:104FA0000CD8A1490422781915F007F930B9022369
:104FB0000120F3607061C4F80890EDE74545C5D263
:104FC0007B5D222B07EB050104D121463046FFF71C
:104FD00041FEE1E72D2B03D0A3F13002092A5CD872
:104FE00000230193A8EB050502AF4FF02E0C11F83A
:104FF000012B392A0FD82A2A17D9A2F12B000E2803
:1050000013D8DFE800F00C120C37120C0C0C0C0C4F
:105010000C0C0C0C0C0002F0DF00452805D1FA54F2
:1050200001333F2B01D0AB42E1D112AA134400253A
:1050300001A9384603F8405C15F024FFDDF804A010
:10504000BA4559EC108B81D086ED060B72A3D3E9DB
:10505000002310EE100A49462EF07CF968B16FF07B
:10506000004373610823F360A368AAEB07071F449A
:10507000A76081E707F803C0D2E76C4B00224046E7
:1050800049462EF05DF910B14FF00043E9E7404684
:1050900049462EF089F97061E4E75B2B51D1E36852
:1050A000B3F57A7FBFF452AF0133E3607B5D5B2BD6
:1050B0007FF44CAF0135A5602046FFF7BDFED4E973
:1050C000012393425ED22268D25C5D2A0AD1002776
:1050D000E368013BE3602023C6E90273A368013360
:1050E000A36049E7013B0025A3602F462069FFF735
:1050F000F7FEA8460546002800F09A80FFB1C8F8E0
:105100000000C0F80480A3680133A3602046FFF7C5
:1051100093FE21462846FFF713FF002800F08B80FE
:105120002046FFF789FED4E90123934280F0838073
:105130002268D35C2C2BD9D05D2B7CD1C8E70746E5
:10514000E1E77B2B7FF402AFE368B3F57A7FBFF42E
:10515000FDAE0133E3607B5D7B2B7FF4F7AE013561
:10516000A5602046FFF768FED4E90123934209D2E7
:105170002268D25C7D2A08D10027E368013BE36006
:105180004023A9E7013BA360E0E60025013BA360C3
:105190002F46A8462069FFF7A3FEA946054600282A
:1051A00046D0002F36D0C9F80000C0F80490A3689C
:1051B0000133A3602046FFF73FFE21462846FFF754
:1051C00049FD002837D02046FFF736FE2B692B62B9
:1051D000D4E901239342C5F810802CD22268D25C16
:1051E0003A2A28D10133A3602046FFF725FE214645
:1051F0002846FFF7A5FEF0B12046FFF71DFED4E9D3
:105200000123934217D22268D35C2C2BC2D07D2B72
:1052100011D1B2E70746CAE70000C0FFFFFFDF4138
:10522000504C0300554C03005B4C03000000E0C1F0
:10523000002F3FF48BAE3846FFF75EFE86E600BFD8
:105240002DE9F043314F89B005460E4691460021C5
:105250001C2201A84FF0000814F080F9C7E900886B
:10526000002D49D02846019514F09FFF284B0130AE
:10527000CDE9020893E8070008AB03E90700FFF750
:105280002FFE044668B3019870B1039B5BB9029B83
:10529000042B06D91F49032214F08FFF08B90323FA
:1052A000039301A800E04046FFF7C6FD01462046F3
:1052B000FFF746FE90B1B9F1000F04D1F6B92046D0
:1052C00009B0BDE8F08301A8FFF7B6FDDDE90223D0
:1052D000934203D2019AD35C002BEFD02046FFF714
:1052E0000BFEDDE902329A420DD303B1013B0EB150
:1052F000EA183260C7E900530024E0E7019B039AF3
:1053000013443360DBE71346F1E700BFB09500209C
:1053100074000020724C030000221146FFF790BF7A
:105320000022FFF79FBD828000220160C280826060
:105330008281C38170478288C38810B54489D31A9B
:10534000121B8489121B91429BB209DCC2899A42CA
:1053500082BF83810023C380C3880068184410BDC6
:105360000020FCE7C38810B584880B44B3FBF4F23B
:1053700004FB1233C38043891944418110BD38B501
:105380000D4601210446FFF7D6FF28B10570012123
:105390002046FFF7E7FF012038BD2DE9F0414589A0
:1053A00004460B460DB3954228BF154686890289EF
:1053B000B0F8048001681644B6B2A8EB0607BFB285
:1053C000BD42114414D918463A4614F0B9F82E4497
:1053D0002168EA1B384414F0B3F8A6EB0806002352
:1053E000A381268163895B1B63812846BDE8F08128
:1053F00018462A4614F0A4F823892B442381F1E7A8
:1054000008B5438933B10122FFF7C7FF003818BF41
:10541000012008BD1846FCE70FB437B5114C06ABA8
:10542000D4F8000253F8042B0193402104EB8010C0
:1054300015F0D2FFD4F8005204EB8515284614F07D
:10544000B4FE094B01465B6828469847D4F8003201
:10545000013303F00703C4F8003203B0BDE8304065
:1054600004B07047989D01206C000020014B18701B
:10547000704700BFB8950020014B1878704700BFF7
:10548000B895002008B519F0DFFD014630B1094894
:10549000FFF7C2FF07210120FDF7BEF906481AF009
:1054A0003DF900F057FC19F0DDFDBDE80840FDF7BF
:1054B00013BC00BF764C0300BC95002030B585B00E
:1054C00000F08CFB014638B103901848FFF7A4FFA9
:1054D00003990120FDF7A0F91AF00DF8144C606053
:1054E00018B938210120FDF797F94FF40060FDF756
:1054F0005FFD01254FF40063CDE90035A060034650
:105500000C4A0D4800211AF03BF8206018B93821E8
:105510002846FDF781F900F005FC20B105B0BDE893
:105520003040FFF7AFBF05B030BD00BF9D4C03005A
:10553000BC950020C84C0300C556000000000000C8
:105540002DE9F04F2DED028B83B008EE103A0E9E40
:1055500083460F461546002E40F0898006294FF4F9
:10556000967084BF01260627FDF722FD0446002C15
:1055700000F08D80F8EEC87ADFF8449117EE900ABB
:105580002DF00AFC4CA3D3E900232DF05DFC2DF097
:105590000BFF414945F65A228246204614F046FD4B
:1055A000204614F002FE3D49204414F0F6FD4FF071
:1055B0000008204614F0F9FD47455FD81EB1384970
:1055C000204414F0EAFD204614F0EFFD6B780193BF
:1055D000AB7800930138EB782A793249204414F0F3
:1055E00025FD204614F0E1FD2F495246204414F0D9
:1055F0001DFD204614F0D9FD10990F9B64224D42E9
:105600005B4295FBF2F102FB1151019193FBF2F623
:10561000109991FBF2F102FB1633009120440F998F
:1056200091FBF2F2214914F001FD204614F0BDFD7A
:105630001F49204414F0B1FD204614F0B6FD1D4969
:10564000821FA01C14F0F2FC7B23A371204614F0EF
:10565000ACFD01462046FDF7FBFE05462046FDF762
:10566000E5FC284603B0BDEC028BBDE8F08F4FF49B
:105670001670FDF79DFC0026044678E71BF808200D
:105680004946204414F0D2FC08F1010891E747256F
:10569000E7E700BFAFF300806A3D0300D14C030091
:1056A000E14C0300E44C0300044D03000B4D0300E8
:1056B000995303006C3D03000000000084D7F73FBE
:1056C000DB4C03002DE9F0418AB000F075FA044686
:1056D00000B32F4D0027EF60FDF73CFD064638462E
:1056E0002CF090F93046FDF73AFDEB6853B9686845
:1056F0004FF0FF3209A919F027FF0028F5D1099BC7
:10570000012B0BD10223EB60EB68022B3CD00AB0DB
:10571000BDE8F0810520FDF757FDD6E7FDF71AFD3E
:10572000B4F88079B4F88269BF1BFDF718FD3B0718
:1057300027D09822724304EB0208A15CB8F9943098
:105740000791971C813222440692059300F040FA9B
:10575000D8F890300293D8F88C3007992744013656
:10576000CDE9000306F00F06DDE905323846FFF704
:10577000E7FEFDF7EFFCA4F88269FDF7F0FCFDF70A
:10578000FFFD19F047FFB0E70120FDF71DFDBBE766
:10579000BC95002008B5074B1A6852B15868022121
:1057A00019F0C9FE28B1BDE808403B210120FDF7F2
:1057B00033B808BDBC950020024B1868003818BFEC
:1057C00001207047BC95002007B5022000F0FAF9CF
:1057D000044B019301A823F0B7F8034803B05DF828
:1057E00004FB00BF30030000564203002DE9374C94
:1057F0004FF49670FDF7DCFB8246002875D0FDF76C
:10580000A9FC019000F0D8F945F65A22834639499F
:10581000504614F00BFC38490AF1060014F0BDFCA8
:10582000BBF8882935490AF1160014F0FFFB00F196
:105830001604BBF88A2932490AEB040014F0F6FB7F
:1058400004449BF88C292F490AEB040014F0EEFB6A
:105850000444BBF884292C490AEB040014F0E6FB4D
:105860000444BBF8862929490AEB040014F0DEFB46
:105870002518BBF88E2926490AEB050014F0D6FB43
:105880000544BBF8902923490AEB050014F0CEFB30
:1058900005449BF8922920490AEB050014F0C6FB49
:1058A0000544DBF89C291D490AEB050014F0BEFBFA
:1058B00005441B49AA1F0AF1020014F0B7FB7B2222
:1058C0008AF80620504614F070FC1649504414F033
:1058D00064FC154AA91C5268504690475046FDF793
:1058E000A5FB019B1846FDF73AFC104803B0BDE844
:1058F000308C00BF6A3D0300484D0300594D030042
:10590000664D0300734D0300804D03008C4D030072
:10591000984D0300A64D0300B24D0300BE4D030099
:105920006C3D0300265503006C0000205642030026
:1059300008B5054B186800F684102CF011FABDE884
:10594000084000202CF05EB8D0950020FFF7F0BF93
:105950002DE9F04F8E4B2DED068BD3F800A089B0CA
:105960000546BAF1000F00F00281BAF880B90BF1D8
:1059700001030193019ABAF882399B1A1B0700F0C0
:10598000ED80982404FB0BF404F18100FF215044C6
:105990002BF0FCFF2CF09CF90AEB04032A68A3F817
:1059A0009400C3F88820DAF89C390133CAF89C398E
:1059B0002A7A12F0020200F0DF8000232AF8043075
:1059C000FDF73CFC04462BF087FE724B9FED727A8C
:1059D000DFED727A20F01000984208BFF0EE477AAF
:1059E000002302A8F0EE678A8DF81D302CF0B8FA7B
:1059F00063799FED6B7ADFED6B7A9DF81C00082BC5
:105A0000039B94BF17EE904A17EE104ADDED027A21
:105A10009B08B8EE679A07EE903A049B9B08B8EE95
:105A2000E7AA07EE903A059B9B08B8EEE78A07EED7
:105A3000903AF8EEE79ADDED067A29EE099AF8EE4B
:105A4000677A00EB4000C7EE897A4500EDB217EEA9
:105A5000900A2DF0A1F941EC100B18F06DFE2046D4
:105A600059EC108B2DF098F9064628460F462DF07C
:105A700081F94D4B04460D460022404649462DF023
:105A8000E3F932463B462DF029F828EE088A804695
:105A90000AEE0A8A894618EE900A2DF07DF909EE81
:105AA000A98A02460B46404649462DF017F8224681
:105AB0002B462DF013F82DF0BFFCC8EE097A08EE46
:105AC000900A17EE900A2DF067F941EC100B18F0D0
:105AD00033FE354B51EC100B00222DF0B5F9324658
:105AE0003B462CF0FBFF22462B462CF0F7FF2DF017
:105AF000A3FC9FED2E7AF4EEC78AF1EE10FA07EEC2
:105B0000900A04D4F5EEC08AF1EE10FA01DDDFED63
:105B1000288AF4EEC77AF1EE10FA04D4F5EEC07AD2
:105B2000F1EE10FA01DDDFED227A9FED227A68EEC8
:105B3000878A67EE877AFDEEE88AFDEEE77A98239A
:105B400003FB0BA3C3ED238AC3ED247AFFF734FED6
:105B500020B1019B03F00F03AAF88039FFF71AFE6A
:105B60000AF684102CF0FCF800202BF04BFF09B053
:105B7000BDEC068BBDE8F08FE9887F2928BF7F2127
:105B8000A01C2AF8041050442CF068F818E700BF55
:105B9000D09500200203CADECDCC7C4233B34C4208
:105BA0006666F3C29A99E3C2000024400000F0C286
:105BB000000000000000C842014B1868704700BF99
:105BC000D0950020014B1860704700BFCC95002095
:105BD000014B1868704700BFCC95002070B58CB0A1
:105BE00019F058FA30B107210120FCF715FE072003
:105BF0000CB070BD434C236823B94FF41A60FDF715
:105C0000D7F920602468002C79D04FF41A62002163
:105C1000204613F0A3FC1822002104F6841013F090
:105C20009DFC0023C4F89C39FDF708FB054619F0DC
:105C300003FA06460028D6D1FDF78CFA0446304612
:105C40002BF07CFD064618B12046FDF788FACEE71A
:105C500019F034F92BF040FD19F08EFD01283ED1EA
:105C60002948FFF7D9FB28462BF0A6FD18B10721DC
:105C70000120FCF7D1FD00202BF0E0FF00202BF0ED
:105C8000CBFE002108462BF09DFF30220021684604
:105C900013F064FC03202CF089F803202BF03EFD68
:105CA0001A4B01931A4B029368461A4B03932BF03D
:105CB000FBFE0222002118482BF012FF01202CF0DD
:105CC0001BF801202CF03CF8FDF7B4FA90F86902BB
:105CD0002CF080F82046FDF742FA002088E70228E1
:105CE00002D10E48AE73BCE72BF0F6FC01460C481F
:105CF000FFF792FB2046FDF732FAFF2078E74820B5
:105D000076E700BFD0950020124F030051590000E4
:105D1000315900004D59000080D00324374F030053
:105D2000644F030010B519F075F9044648B10146F7
:105D30000648FFF771FB01200721FCF76DFD0720E6
:105D400010BD0348FFF768FB2046F9E7874F0300C3
:105D5000BD4F030010B5044C206818B1FDF766F97B
:105D60000023236010BD00BFD095002038B5174B2D
:105D7000174C1A787AB1174D206800221A7001F07A
:105D800074FA2968144802F0D7FA48B1134B144842
:105D90005B681F2198472068BDE8384001F048BA89
:105DA00029680D4802F0D1FA20B10C4B0D485B6810
:105DB0002121EFE7084802F0A3FA206800F05EFE18
:105DC000094B1868FDF732F9E5E700BF3896002067
:105DD0003C96002034960020D49500206C000020D2
:105DE000E14F030001500300F09500202DE9F0433E
:105DF000534B0A681A6085B00D4607469846B0B105
:105E0000D1F820422402A4B22046FDF7D1F8DFF8F1
:105E100078914C4EC9F8000060B94B4B4B485B6819
:105E20001121984747210120FCF7F6FC5EE04FF472
:105E30008074E9E73046A9F8044000F001FE04460A
:105E400030B1414B42485B68142198470121EAE791
:105E5000E989306801F036FACDE900493D4B3E4A08
:105E600031683E4802F020FA20B1374B3C485B686D
:105E70001721EAE7394802F048FA20B1324B394895
:105E80005B682021E1E705F1080401223068214622
:105E900000F092FF024620B12B4B33485B6828216B
:105EA000D3E7D8F800102D4802AB02F035FA20B144
:105EB000254B2E485B681F21C7E7DFF8C080039998
:105EC0002648C8F80010224600F0BCFF044620B166
:105ED0001D4B27485B682221B7E73FB1DFF87C9074
:105EE00005F1E007D5F820329C420BDB306801F069
:105EF000ABF9B0B1144B1F485B681321984705B04C
:105F0000BDE8F0833A46D8F80010484602F026FA79
:105F1000283720B10C4B18485B68202195E70134E5
:105F2000E0E7164B0D48196802F0FDF920B1064B69
:105F300013485B682021E1E7124B01221A70DEE76B
:105F4000800000203C9600206C00002023500300BD
:105F5000355003004A500300B15F0000D495002083
:105F6000525003006A5003008B500300B4500300EA
:105F7000D450030018510300F7500300349600205A
:105F80002C51030038960020F095002008B5FDF74D
:105F900059F9BDE8084001460120FFF727BF08B5C1
:105FA000FDF750F9BDE8084001460020FFF71EBF8D
:105FB0002DE9F04F012887B00F46144605D0082878
:105FC00000F0338207B0BDE8F08F9C4AA1882068BA
:105FD000DFF8B4A213F0F6FF3B68A18820681B68C5
:105FE000974A1239123013F0EDFF3B68A1885B68C5
:105FF000944A00F112052068491B284413F0E2FF7F
:106000003B68A1889B68904A05442068491B284446
:1060100013F0D8FFA1887B688C4A05442068491B8F
:10602000284413F0CFFF3E4605444FF000087B683C
:106030002068A18898452844A1EB050137DB844EF0
:10604000844A13F0BFFF73682068E91C98473B68D7
:10605000D3F81890B046B9F1000FB3D07E4AA188AA
:10606000206813F0AFFFA1882068D9F800307B4A80
:106070001739173013F0A6FF736800F11701206875
:106080009847D9F804604FF0000AD9F8003053451A
:1060900000F2FC80A1886F4A206813F093FFD8F8C3
:1060A00004300321206807B0BDE8F04F1847B8F16D
:1060B000000F03D0524613F085FF0135B27AB6F8CF
:1060C00008C02068A188272A96BF654B654A53F807
:1060D000222000922844491B6346634A13F072FF52
:1060E000B37A0544002B40F09D80A1882068336975
:1060F0005E4A491B284413F065FFF37E05440BB349
:106100002368B6F91E0003EB0509A388A3EB050B72
:1061100019F086FBB6F91C008DED050A19F080FB1D
:1061200010EE100A2CF038FE059ACDE90201104657
:106130002CF032FE4E4ACDE900015946484613F094
:1061400041FF054496F8213013B3B6F92400D4F882
:106150000090B4F804B019F063FBB6F922008DED9D
:10616000050A19F05DFB10EE100A2CF015FE059AD9
:10617000CDE9020110462CF00FFEABEB050BA94454
:10618000CDE900013B4A5946484613F01BFF054440
:10619000337EB3B1B6F91400D4F80090B4F804B06B
:1061A00019F03EFB10EE100A2CF0F6FDABEB050BE0
:1061B000A944CDE90001304A5946484613F002FF90
:1061C0000544737EB3B1B6F91600D4F80090B4F864
:1061D00004B019F025FB10EE100A2CF0DDFDABEB3E
:1061E000050BA944CDE90001244A5946484613F05D
:1061F000E9FE054496F82600A0B1D4F80090B4F862
:1062000004B019F021FB10EE100A2CF0C5FDABEB29
:10621000050BA944CDE90001194A5946484613F037
:10622000D1FE0544A1882068164A491B284413F072
:10623000C9FE013508F101082036F8E65F51030078
:1062400072510300865103009C510300AE510300BC
:106250006C000020995303006F5203008752030023
:10626000105D03004D510300C4510300E9510300C8
:10627000FB5103001D5203003F5203004E52030026
:106280005D520300D6870300C2510300002E3FF485
:1062900099AE737FA1882068062B96BF6C4A6D4B20
:1062A00052F823306C4A13F08DFEA188B27F054668
:1062B0002068491B2844002A7ED0684B684F012A79
:1062C00008BF3B46674A13F07DFEA188F37F664A0C
:1062D00005442068491B284413F074FEB27DB4F8CD
:1062E00004B062492F1825686148C2F380033D4419
:1062F000ABEB070B0093C2F3400302F0010213F073
:1063000095FE5B4B5B4A5946284613F05BFEA1881D
:10631000F37E594A07442068C91B384413F052FEE3
:10632000F37E0F37D3B13069544B80FB0301830EEA
:1063300043EA811383EAE37C6422ACEBE37CA1882B
:106340002068BCFBF2F502FB15C5C91B384493FB62
:10635000F2F300954A4A13F035FE0744A1882068FD
:10636000737E484AC91B384413F02CFE3D18B768A9
:106370004FF0000B737E9B4520DBA1882068424ACA
:10638000491B284413F01EFED9F80020013A52455B
:1063900005F1010307D9A18820683C4AC91A1844AD
:1063A00013F010FEAB1CD8F8042020681946904763
:1063B0000AF1010A366868E6354B83E7002F3FF49F
:1063C00001AEA1882068B7F90430324A491B28443D
:1063D00013F0F8FDA188B7F906302F4A054420686C
:1063E000491B284413F0EEFDA188B7F908302B4A69
:1063F00005442068491B284413F0E4FDA188BB7ABA
:10640000274A05442068491B284413F0DBFDA18876
:10641000FB7A244A05442068491B284413F0D2FD26
:106420000BF1010B3F680544A4E70B79106849792B
:10643000032B96BF1C4A074A52F823201B4B53F8E4
:1064400021301B4913F0F2FD1A4B01465B6829E627
:10645000C06103004D5103009552030055510300E4
:106460005C510300A4520300B0520300C152030068
:10647000F8950020F95203000D53030000E1F505E3
:106480001E5303002F530300D6870300C25103009D
:10649000595103003B53030047530300515303007A
:1064A0005A53030063530300B05D0300C05D030053
:1064B0006D5303006C00002010B50446FCF7C2FECB
:1064C000002C3CD000230362C38140F201130381FE
:1064D0000123C0F82032A0F8E430002280F8252201
:1064E000027380F8402080F8522040F609222A23C7
:1064F000A0F84C200322036080F84E20022390F87D
:10650000652080F85030837201231A4380F865209B
:1065100090F8432080F844304FF4166101634FF047
:10652000C80C192142F00302C0E90D1C80F8432079
:10653000523000F8013F0133092BFAD110BD01237D
:1065400003620482C3810481C0F82042C5E70000D1
:106550002DE9F04FBBB005460E46FCF773FEA5498A
:10656000DFF8EC82DFF8EC92DFF8ECA20446284674
:1065700014F0EEFC002705461A2239460BA8CDE997
:10658000097712F0EBFF0DB9012650E009AA414648
:10659000284613F06BFD012819D10998FEF76EFA11
:1065A00001300BD00998FEF769FA84F84C00914944
:1065B000002014F0CDFC01370546E4E7099A8E4926
:1065C0001AA813F033FD8D4B01465B682CE009AB34
:1065D0000AAA4946284613F049FD022833D19DF8FE
:1065E0002830422B27D1099A0023033A84F86830D7
:1065F000032A12D8DFE802F002090B0F012384F806
:106600004E30022384F85030D1E70323F7E701220C
:1066100084F84E20F6E70322FAE779491AA813F026
:10662000BCFD764B5B6813211AA8984700263046BC
:106630003BB0BDE8F08F73491AA813F0AEFD6F4B65
:106640000F215B68F0E709AA5146284613F00EFDBA
:1066500001280DD1099BB3F5166F01D32363A6E77B
:1066600069491AA813F099FD644B20215B68DBE7A8
:10667000664909AA284613F0F9FC01280BD1099DA7
:106680000DB1A56393E762491AA813F086FD5B4B31
:106690001F215B68C8E75F4909AA284613F0E6FC9A
:1066A00001280DD1099B5A1EFE2A01D863637EE79B
:1066B00059491AA813F071FD504B22215B68B3E7CA
:1066C00056490AAA284613F0D1FC012883461FD157
:1066D00053490AA813F057FD10B984F80AB066E7C9
:1066E00050490AA813F04FFD10B90223A3725EE7C8
:1066F0004D490AA813F047FD08B90323F6E74B49B3
:106700000AA813F040FD08B90423EFE74849BBE7A6
:10671000484909AA284613F0A9FC01280BD1099D74
:106720000DB1256043E744491AA813F036FD334BF9
:1067300016215B6878E719AB059318AB049317AB88
:10674000039316AB029315AB019314AB00933B4933
:1067500013AB12AA284613F089FC08280BD112AB00
:1067600004F1520204F15A0153F8040B02F8010F2C
:106770009142F9D11BE73249284613F004FD10B9C4
:106780000123237313E72F49284613F0FCFC18B9A3
:10679000012384F840300AE72B4909AA284613F060
:1067A00065FC012802D1099BE38100E727490AAA79
:1067B000284613F05BFC012840F091809DF82830BA
:1067C000303B0025092BC4F8205247D80AA866B1EF
:1067D00012F05CFED4F820325A1CC4F82022282281
:1067E00002FB0343A3F8E400E1E612F04FFE20822F
:1067F000DDE600BFEF3E0300FA3E03006C00002020
:10680000AC530300C0530300D8530300F9530300F3
:1068100002540300225403002B5403004E5403007F
:10682000555403005B540300615403006B54030090
:1068300075540300955403009B540300B2540300A5
:10684000E1540300E7540300EB540300F354030046
:10685000F23E03009D530300D0530300002E3AD1B3
:1068600038490AAA1AA813F0E1FB374B01465B68C6
:106870001AA89847DBE60570187868B9531C1A788F
:10688000002A3FF494AE18465946079313F0BAFC19
:10689000079B02460028EED1D4F82002072808DD25
:1068A0002A4908221AA813F0C1FB274B27215B684D
:1068B000BAE61846079212F0E9FDD4F820322822F1
:1068C000591C02FB0343079AC4F82012A3F8E40002
:1068D000002AD3D16BE6DFF88CB00AABCFE71C49B6
:1068E00009AA284613F0C2FB01280CD10998FEF72B
:1068F00045F9013005D00998FEF740F984F84D00BC
:1069000055E61449C0E6144909AA284613F0AEFB1F
:10691000012810D10998FEF7BAF8013003D0099B7D
:1069200084F8523043E60D491AA813F036FC064BA2
:1069300019215B6878E617F0FF0F3FF438AE08497D
:106940002A463DE6295503006C000020005503004F
:106950002D3F03004A550300783F03006A550300AA
:1069600084550300FC540300F8B506460D4681F03B
:106970000107FCF767FC04469EB12D21304613F059
:10698000F5FB70B12846FFF797FD29463046FFF723
:10699000DFFD28B1012384F8253284F82472012018
:1069A000F8BD94F82532022B03D194F82432BB426F
:1069B000F3D02846FFF780FDEFE710B5FCF742FC67
:1069C00090F82532044633B990F82402B0FA80F0EA
:1069D0004009FFF771FD022384F8253210BD000045
:1069E00007B50121FFF7C0FF50B100F051F8054B8A
:1069F000019301A821F0A8FF034803B05DF804FB50
:106A00000248FAE74C030000564203004F420300DD
:106A100007B50021FFF7A8FF50B100F039F8054B8A
:106A2000019301A821F090FF034803B05DF804FB37
:106A30000248FAE768030000564203004F42030091
:106A400038B5054618F026FB044698B90A4809F0FF
:106A500081FB044660B903F0BBF8044630B9284610
:106A600000F0D8FB044628B102F0EAFC09F094FBE0
:106A700018F0EAFA204638BD0000002008B502F000
:106A8000DFFC09F089FBBDE8084018F0DDBA000022
:106A90002DE9F0434FF4006087B0FCF789FA044613
:106AA00038B9A44BA4485B68122107B0BDE8F04395
:106AB0001847FCF7C7FBA1490546204613F06DFBBC
:106AC000204613F072FB2B689D4AC0F500612044FC
:106AD00013F078FA204613F068FB9A4A95F84C3088
:106AE000C0F50061204413F06DFA204613F05DFB01
:106AF0006A7A0146C1F500612018002A00F0C580BD
:106B0000914B924E012A08BF3346914A13F05AFA2C
:106B1000204613F04AFBAB7A013BDBB2032B96BF56
:106B20008C4A894B52F823308B4A0146C1F50061EB
:106B3000201813F047FA204613F037FB2B6B874AD7
:106B4000C0F50061204413F03DFA204613F02DFB00
:106B5000AB6B834AC0F50061204413F033FA204642
:106B600013F023FB7F4A6B6BC0F50061204413F0E8
:106B700029FA204613F019FB2A7B0146C1F5006172
:106B80002018002A00F083806F4B774E012A08BF3F
:106B90003346764A13F016FA204613F006FB95F8B2
:106BA0004010734A734B002908BF1346C0F50061BB
:106BB000714A204413F006FA204613F0F6FA95F8CD
:106BC0004E200146012A2044C1F5006161D05E4B90
:106BD0006A4E032A08BF3346694A13F0F3F9204688
:106BE00013F0E3FA95F85030664AC0F5006120448E
:106BF00013F0E8F9204613F0D8FA95F84D30624AC0
:106C0000C0F50061204413F0DDF9204613F0CDFA01
:106C100095F8582095F85330049295F85720039230
:106C200095F85620029295F85520019295F8542037
:106C30000092C0F50061554A204413F0C3F9204684
:106C400013F0B3FA95F85A2095F859300092C0F530
:106C500000614F4A204413F0B5F9204613F0A5FA1D
:106C6000EB894C4AC0F50061204413F0ABF92B7A54
:106C7000012B57D0204613F098FA2B8A464AC0F5CC
:106C80000061204413F09EF932E0444B3DE7444B51
:106C90007FE7444BA0E7282305F1E4027343D35A6E
:106CA00000933A46334613F08DF9D5F82032013B74
:106CB000B34208DD204613F078FA4246C0F5006181
:106CC000204413F07FF9204613F06FFA4A46C0F5CE
:106CD0000061204413F076F90136204613F065FA7E
:106CE000D5F820320146B3422044C1F50061D2DC20
:106CF000204613F05AFA2C4AC0F50061204413F0E4
:106D000061F9204613F051FA0A4B01465B682046B0
:106D100098472046FCF78AF9642007B0BDE8F043A5
:106D2000FCF752BA214FDFF88880DFF88890002600
:106D3000D3E700BF6C00002004680300176803005D
:106D400034680300476803004D510300CD6703001A
:106D50005D6803002C6A0300706803008B68030001
:106D6000A8680300C6680300DF670300DB68030050
:106D7000F3670300EB670300F26803000068030099
:106D8000066903001B6903002969030044690300C5
:106D90007669030090690300CA690300C3670300B2
:106DA000D7670300FC670300C5490300AE69030011
:106DB000024D0300265503007FB50C466946164672
:106DC00000F0D4FA054690BB029818F0D5FC0128D3
:106DD00009D002281AD0174B02995B6816489847C9
:106DE0006FF011050FE0154BA3664FF6FF73606659
:106DF000A4F86C3084F86E302EB194F85D3043F016
:106E00000A0384F85D30284604B070BD0C4B0122A3
:106E1000C4E919234FF6FF73A4F86C3084F86E3080
:106E2000002EF0D094F85D3023F00E03E9E76FF008
:106E30000805E8E76C000020644F03000201FFFF33
:106E40000001FFFF70B5164692F8442004460D4637
:106E500001F062FB002840F0B58096F845202946F5
:106E6000204601F06AFB002840F0AC8096F84820EC
:106E70002946204601F094FB002840F0A38096F8B4
:106E80004A202946204601F09CFB002840F09A80C9
:106E900096F860202946204601F071FB002840F05A
:106EA000918032782946204601F070FA002840F09F
:106EB000898072782946204601F078FA002840F04F
:106EC000818032792946204601F092FA002879D152
:106ED00096F846202946204601F040FB002871D153
:106EE000B26A2946204601F0A4FA00286AD1326B22
:106EF0002946204601F0ADFA002863D1F26A2946FE
:106F0000204601F0B6FA00285CD1B2782946204626
:106F100001F05DFA002855D196F838202946204620
:106F200001F0C7FA00284DD1726B2946204601F0C6
:106F3000B0FA002846D196F83C202946204601F0B8
:106F4000DAFA00283ED106F14B022946204601F02C
:106F50008CFBB8BB96F85D202946204601F042FB29
:106F600080BB96F83B202946204601F0B3FA48BB87
:106F700096F8B0202946204601F056FB10BB96F843
:106F80005C202946204601F03EFBD8B9F28829460C
:106F9000204601F03EFAA8B9B26906F10803294675
:106FA000204601F00BFC68B906F164022946204630
:106FB00001F088FB30B9294620462822BDE8704000
:106FC00001F043BB70BD2DE9F041E2B004460E462E
:106FD00017460021F02226A812F0C0FA60220021F4
:106FE0000EA812F0BBFAA5681C2235F8048B00210C
:106FF000684612F0B3FA0023A8F104080394ADF830
:107000001C3107AC48930E2240F20D1326A96846A6
:10701000CDE90155CDF810804694ADF8243102F049
:10702000BBF8A0B90423ADF87C3040F209132090DE
:10703000ADF88430ADF88C0024900D2305220EA904
:1070400020461E972296ADF8943002F0A5F862B063
:10705000BDE8F08170B5B0B1A9B1002200F15805CA
:107060000C2606FB02F42B5D3BB9086020440A7134
:10707000012280F85820184670BD01320A2AF0D14A
:107080006FF00500F8E76FF00A00F5E768B10279E4
:10709000092A0DD850210C2313FB02130168CA18CA
:1070A0000020C8505060906070476FF00A00704731
:1070B0006FF01600704710B50C4600F1D8010120A2
:1070C000FBF790FF58B1042303764FF40873C362B3
:1070D00000F1D803C36000F118030361846310BD9D
:1070E000FBF7A4BF014B18600020704740960020BA
:1070F000024A002343641360704700BF409600209B
:10710000034610B45A6C08463AB1D4682CB1986C56
:10711000002223465DF8044B18475DF8044B01F04C
:10712000EBBF436C23B19B6813B1806C00211847FF
:107130007047034610B45A6C08463AB114682CB133
:10714000986C012223465DF8044B18475DF8044B08
:1071500001F0D2BF084B10B41C68636C3BB11B68D4
:107160002BB101460022A06C5DF8044B18475DF876
:10717000044B01F0C1BF00BF40960020C36B0BB1B0
:10718000006C184770470000F8B50E4B1B68DB6CAD
:1071900005460C4683B1C36C8E6818461C2200213C
:1071A00036F8047B12F0DAF9EB6C043FC0E90166B3
:1071B0000761DC600020F8BD084601F09DFF6FF01C
:1071C0000A00F8E74096002070B50139092988B017
:1071D000164617D80C2404FB0104636DABB16A4654
:1071E00001A93046FFF7EFFE054688B9636D0099A7
:1071F000206D01AA984716B1304601F07DFF284660
:1072000008B070BD6FF01605F5E76FF00605F2E700
:107210000025F0E710B5044606F0ACFF28B901F0F0
:10722000CBFE10B9014B1B68236010BD40960020B7
:1072300008B501F0C7FEBDE8084006F0A6BF10B1D2
:10724000836B5B681847704710B5044640B1FFF781
:10725000F6FF40B9A36B20469B68BDE81040184775
:107260006FF0080010BD0020FCE710B5044640B1E7
:10727000FFF7E5FF20B1A36B2046DB6898470020AD
:1072800010BD6FF00800FBE710B551B10379092B71
:107290000AD800680C2404FB0303C3E9142100206E
:1072A00010BD6FF00A00FBE76FF01600F8E708B5B5
:1072B00028B101F065FB00EAE07000B208BD6FF094
:1072C0000800FBE71FB548B1836BADF80A101B6AD5
:1072D00001226946984705B05DF804FB6FF008008D
:1072E000F9E718B102B1526801F0F4BA6FF0080082
:1072F000704710B4019C30B104B1646801945DF82A
:10730000044B01F0FFBA6FF008005DF8044B7047C2
:1073100070B588B004460D9DC8B10DB1287EC8B9BE
:107320000E9800790130002607900F98E064CDE9AF
:10733000056605B16D6805A8CDE901500C9800906F
:10734000204601F0FDFA0023E36408B070BD6FF041
:107350000800FAE76FF00400F7E710B5044620B123
:10736000C06801F0C9FE0023E36010BD1FB50C46E4
:1073700068B1694601F01CFB38B9DDE90023C4E9B6
:107380000023029BA360039BE36004B010BD6FF079
:107390000800FAE7D0E90032082018477FB5134605
:1073A00070B1019108490022CDE90413083001AB06
:1073B0000521CDE9022209F0DBFD07B05DF804FBF1
:1073C0006FF00A00F9E700BFDF74000030B50C462B
:1073D0008FB005466A460321204601F041FE07AA08
:1073E0000021204601F03CFEAA880121204602F03F
:1073F00010F8AB7983B12A680221204602F014F814
:10740000EB794BB1102B01D0202B10D105F10802E4
:107410000321204602F012F807A9204601F03EFEA3
:107420006946204601F03AFE00200FB030BD6FF0F3
:107430000A00FAE7F0B50C4697B0074601AA2321E7
:10744000204601F00DFE3D1D00263B68B34205F1CC
:10745000070506D801A9204601F020FE002017B03C
:10746000F0BD314608AA204601F0FAFD15F8072CB8
:107470000121204601F0C2FF15F8062C022120460A
:1074800001F0BCFF15F8052C0321204601F0B6FFE2
:107490000FAA0421204601F0E3FD15F8042C012178
:1074A000204601F0ABFF15F8032C0221204601F025
:1074B000A5FF0FA9204601F0F1FD15F8022C0521CA
:1074C000204601F09BFF15F8012C0621204601F013
:1074D00095FF08A9204601F0E1FD0136B5E710B49B
:1074E0000446D4E90132084621785DF8044B01F0E6
:1074F00081BD10B50B01002400EB01111470C250C6
:1075000001238B818B808C6010BD30B595B00C460B
:10751000054650220021684612F020F80122072378
:10752000A118ADF81420ADF81C30ADF83420ADF83A
:107530003C300422A31C04940C91089314440223AD
:1075400069462846ADF82430ADF82C201094ADF8EB
:107550004430ADF84C2001F01FFE002818BF6FF03A
:107560000A0015B030BD2DE9F04F2DED028BADF5C1
:10757000257D00AF05468846164600214FF4D0729F
:1075800007F1F00011F0EAFF10210120FBF72AFDBE
:107590000446002800F0428100234FF0070BC8F892
:1075A0000000A7F8C43186F800B0C7F8C83107F169
:1075B000180640F20D13192207F1F0012846C7F80A
:1075C000C061A7F8CC3101F0E7FD814600287AD1EF
:1075D0000146E0606081802207F1700011F0BEFF7B
:1075E0000423A7F8843040F20913A7F88C30A21DB9
:1075F00004F10803C7F8B030C7F8A02040F2071321
:1076000004F10A02A7F8BC30C7F8D020231D0D22D0
:107610004FF002084FF48475C7F89030A7F8EC20BB
:1076200007F134034FF0010A5A4607F17001304662
:10763000C7F88890C7F8B890C7F89890C7F8A8908E
:10764000C7F8D890A7F8E490C7F8E890C7F880404A
:10765000A7F8B4A0A7F89480A7F89C50A7F8A48036
:10766000A7F8AC50A7F8D480A7F8DC50C7F8E030F2
:1076700001F092FD814630BB97F8ED20930722D5AB
:107680006B460146202207F1500008EE103A07F140
:10769000160B11F063FF524607F1500107F1340059
:1076A000A7F81690C7F86890C7F860B0A7F864808C
:1076B000A7F86C5001F070FD8146002875D1FA8A58
:1076C0004AB96FF00A09484607F52577BD46BDEC73
:1076D000028BBDE8F08F61890029F2D0B1FBF2F393
:1076E0009DB202FB13139BB203B101354FEA450A69
:1076F0000AF101026B46A3EB02139D460AF1070350
:1077000023F00703AD00EB46ADEB030DEB1D23F0BB
